:100000000C942C080C9473080C9473080C947E3494
:100010000C9473080C9473080C9473080C94730874
:100020000C9473080C9473080C942A1B0C94661A95
:100030000C946D290C9473080C9473080C94730839
:100040000C9473080C9473080C9473080C94730844
:100050000C9473080C9420290C9473080C94730866
:100060000C9473080C9473080C9473080C94730824
:100070000C9473080C9473080C9473080C94730814
:100080000C9473080C9473080C9473080C94730804
:100090000C9473080C9473080C9473080C947308F4
:1000A0000C9473080C9473080C947308DC0DDF0D2A
:1000B000040E110E180E380E3B0E6F0E910E2E0F01
:1000C0002E0F9C0E9E0EA20EC60EE70EEA0EED0E31
:1000D0000F0F75127B128A128C12901292129412C8
:1000E000B3129B12A2122114211457145714D014C6
:1000F000FC15FC15FC15EE146415771577157818AA
:100100009F18481A9F18481AEB180E19481A031A14
:10011000131A3D2C3D2C502C502C462C502C502C7E
:10012000502C3D2C3D2C4B2C502C502C4B2C00DAC1
:100130000281FFD9F1DB20A4A62EAF00A0C000A150
:10014000C800AED580A81FD300408D1420001E1417
:100150000A05000000000000000007070707070766
:1001600007070707070707FFFF0F0700000000004A
:1001700000000000000000000000C0E0E0E0E0E05F
:100180007858C4C4C4C68381810000000000000008
:10019000000000000000000000000000000000005F
:1001A000000000000000070F0FFFF000000000003B
:1001B000000000000000000000C0C0C0C0C0C0C0FF
:1001C0008080808080C04038380F0300000000002D
:1001D000000000004040787878783C040707070367
:1001E0000307073C3CFCC0C000000000000000000A
:1001F00000000000000000000000000000000000FF
:100200000080C078781F0303000000000000000099
:10021000000000000000000000000080E0E07C1E04
:100220001E030100000000000000000000000000AC
:1002300000000000000070FEFEFEFFE160606070E4
:1002400070707070701010101E1E1E1E1E0E0E0E8E
:10025000000000000000000000000000F0E0E0E00E
:10026000F0F0F0FEFEFEFEFF0000000000000000C7
:10027000000000000000000000000000000000007E
:1002800000F8FFFFFFFF3F0000000000000000003B
:10029000000000000000000000000000000000005E
:1002A000F8FFFF7F7F7F00000000000000000000DB
:1002B0000000000000000000003030F0F0F03E3E92
:1002C0003F3F3F3C3C3C3C3C3030300000000000B5
:1002D000000000000000000000C070383808080E60
:1002E000060606060E0E0E3E3E78F8F8C0C0000068
:1002F0000000000000C0FFFFFF3F00000000000002
:10030000000000000000000000000707FFFFFF00E2
:100310000000000000FFFFFFFF00000000000000E1
:10032000000000000000000000000000FFFF3F0090
:100330000000000000011F1F1F3EF8E0E0C0C0C029
:10034000C0C0C0C000000020201806060303000043
:1003500000006C6179657200000000000000000080
:1003600000F00C020201418101010102720CF00057
:10037000000000000000000000000000000000007D
:100380003C47464C34242221202060A0929897605C
:10039000000000000000000000000000000000005D
:1003A000C02018040202010101E101E2020C30C088
:1003B000000000000000000000000000000000003D
:1003C0000344A8989C90A0606060E4A0909CA8471B
:1003D000000000000000000000000000000000001D
:1003E0001CE2410101020101017101710205C13EDE
:1003F00000000000000000000000000000000000FD
:1004000000798688503060A0A0602220100C030084
:1004100000000000000000000000000000000000DC
:1004200038C4820204020201E101E102020CE23C52
:1004300000000000000000000000000000000000BC
:1004400000000738448282CC7040E8908844231E24
:1004500000000000000000002000533A20002000AF
:100460004D3A20002000483A20007570000000003E
:10047000000000000000000000000000000000007C
:10048000000000000000000000000000000000006C
:10049000007E0F00D4FFFFFFC700000078000000BF
:1004A00000000000002A2B280000000000000000CF
:1004B000000000000000000029000000002C1E3495
:1004C00020212224342627252E362D3738271E1F9B
:1004D000202122232425263333362E37381F0405C6
:1004E000060708090A0B0C0D0E0F10111213141534
:1004F000161718191A1B1C1D2F3130232D35040512
:10050000060708090A0B0C0D0E0F10111213141513
:10051000161718191A1B1C1D2F3130354C050109EF
:1005200002A10185020901A1000509190129081587
:100530000025019508750181020501093009311571
:1005400081257F95027508810609381581257F95DB
:100550000175088106050C0A38021581257F950171
:1005600075088106C0C005010980A1018503190134
:100570002AB700150126B700950175108100C00546
:100580000C0901A101850419012AA002150126A068
:1005900002950175108100C00660FF0961A1010983
:1005A00062150026FF009520750881020963150079
:1005B00026FF00952075089102C005010906A101DA
:1005C000050719E029E71500250195087501810245
:1005D0009501750881010507190029FF150026FFFF
:1005E000009506750881000508190129059505750E
:1005F000019102950175039101C009025B0003019D
:1006000000A0FA0904000001030101000921110101
:1006100000012240000705810308000A09040100C7
:100620000203000000092111010001222200070538
:1006300082032000010705030320000109040200D2
:100640000103000000092111010001227B000705C0
:10065000840320000A12010002000000085759001C
:100660000101000102000114034B006500790062E2
:100670000061006C006C003600310000001003596E
:10068000006F0077006B00650065007300000004D8
:100690000309040000000000003E5B4F5B3E003E8B
:1006A0006B4F6B3E001C3E7C3E1C00183C7E3C1891
:1006B000001C577D571C001C5E7F5E1C0000183C10
:1006C000180000FFE7C3E7FF00001824180000FF30
:1006D000E7DBE7FF0030483A060E00262979292695
:1006E00000407F05050700407F05253F005A3CE795
:1006F0003C5A007F3E1C1C0800081C1C3E7F001456
:10070000227F2214005F5F005F5F0006097F017F88
:1007100000006689956A0060606060600094A2FFD6
:10072000A2940008047E04080010207E2010000817
:10073000082A1C0800081C2A0808001E10101010A7
:10074000000C1E0C1E0C0030383E383000060E3EE9
:100750000E060000000000000000005F0000000026
:100760000700070000147F147F1400242A7F2A1238
:100770000023130864620036495620500000080721
:10078000030000001C224100000041221C00002A3E
:100790001C7F1C2A0008083E0808000080703000FA
:1007A0000008080808080000006060000020100829
:1007B0000402003E5149453E0000427F4000007265
:1007C00049494946002141494D33001814127F1010
:1007D000002745454539003C4A494931004121112E
:1007E000090700364949493600464949291E000093
:1007F00000140000000040340000000008142241F2
:1008000000141414141400004122140800020159A9
:100810000906003E415D594E007C1211127C007F9A
:1008200049494936003E41414122007F4141413E14
:10083000007F49494941007F09090901003E4141C2
:100840005173007F0808087F0000417F41000020AD
:1008500040413F01007F08142241007F404040405A
:10086000007F021C027F007F0408107F003E414190
:10087000413E007F09090906003E4151215E007F8B
:10088000091929460026494949320003017F01031D
:10089000003F4040403F001F2040201F003F4038A5
:1008A000403F0063140814630003047804030061EC
:1008B00059494D4300007F41414100020408102086
:1008C00000004141417F0004020102040040404019
:1008D0004040000003070800002054547840007F87
:1008E0002844443800384444442800384444287F8D
:1008F0000038545454180000087E090200182424BB
:100900001C78007F080404780000447D400000202B
:1009100040403D00007F102844000000417F40001F
:10092000007C04780478007C08040478003844448F
:100930004438007C1824241800182424187C007CD7
:10094000080404080048545454240004043F442478
:10095000003C4040207C001C2040201C003C4030DB
:10096000403C004428102844004C9090907C004467
:1009700064544C4400000836410000000077000039
:10098000000041360800000201020402003C262358
:10099000263C0000000000000000000000000000F5
:1009A0000000000000000000000000C0F0F88C868D
:1009B000C6E7FFFFFFFFFFFFFEFCFCF8E080000042
:1009C00000F0F0F00000C0E0F070700000000000E7
:1009D0000000000000000000000000000000000017
:1009E00000F8F8F80000000000000000000000001F
:1009F00000000000000000F8F8F80000F8F8F80027
:100A000000000000000000000000000000000000E6
:100A100000E0F0F0F0E0ECEEF7F37020007C7C7C7E
:100A20007E007E7E7E7F7F7F000080C0E07E5B4F09
:100A30005BFEC00000C000DCD7DEDEDED7DC00C01D
:100A400000000000000000000000000000000000A6
:100A50000000000000000000000000000000000096
:100A60000000000080E07078686C64C7C7C7C7C723
:100A7000C7E73F1F0F3FFFFFFFFFFFFF3F0F0000D4
:100A800000FFFFFF1E3FFFF3E1800000F8FCFE3691
:100A900036363EBCB8000E3EFEF080F0FE3E0E0044
:100AA00000FFFFFF060606FEFEFC7000E6F6F636C7
:100AB00036FEFEFC000000FFFFFF0000FFFFFF000E
:100AC0000000000000000000000000000000000026
:100AD000000F1F3F7F7F7F7F7F3F1E0C001F1F1F68
:100AE0003F003F3F3F7F7F7F00307B7F783020207B
:100AF00030787F3B0003000F7F0F0F0F7F0F000345
:100B000000000000000000000000000000000000E5
:100B100000000000000000000000000000000000D5
:100B20000000003C7F6360E0C0C0C0C0C0C0C0C067
:100B3000FFFFC06030180F03030301000000000036
:100B40000003030300000003030303000103030386
:100B50000303030301007070393F1F070100000009
:100B60000001030303030303030100000103030364
:100B70000303030100000003030300000303030059
:100B80000000000000000000000000000000000065
:100B90000000000000000000000000000000000055
:100BA0000000000000000000000000000000000045
:100BB0000000000000000000000000000000000035
:100BC0000000000000000000000000000000000025
:100BD0000000002223252628292A2C2D2F303233ED
:100BE0003536383A3B3D3E4042434547494A4C4EF4
:100BF0005051535557595A5C5E6062646668696B20
:100C00006D6F71737577797B7D7F81838587898A25
:100C10008C8E90929496989A9C9E9FA1A3A5A7A82B
:100C2000AAACAEAFB1B3B4B6B8B9BBBCBEBFC1C25B
:100C3000C3C5C6C7C9CACBCCCDCED0D1D2D2D3D4EE
:100C4000D5D6D7D7D8D9D9DADADBDBDBDCDCDCDC0C
:100C5000DCDDDDDDDDDCDCDCDCDCDBDBDBDADAD9DA
:100C6000D9D8D7D7D6D5D4D3D2D2D1D0CECDCCCB5C
:100C7000CAC9C7C6C5C3C2C1BFBEBCBBB9B8B6B47A
:100C8000B3B1AFAEACAAA8A7A5A3A19F9E9C9A980A
:100C9000969492908E8C8A89878583817F7D7B79DB
:100CA000777573716F6D6B6968666462605E5C5ABC
:100CB0005957555351504E4C4A4947454342403E7F
:100CC0003D3B3A3836353332302F2D2C2A29282611
:100CD00025232200AF00AE29001E001F00000020C7
:100CE000002100220000004C0014001A000000083F
:100CF000001500170000002B00040016000000077C
:100D00000009000A00000001511D001B0000000640
:100D1000001900050030000100E000E2000000E3DF
:100D20000091412C4290432D002700260000002511
:100D30000024002300000089001300120000000CB2
:100D40000018001C000000240233000F0000000EF9
:100D5000000D000B000000E50038003700000036F1
:100D6000001000110032004600E60001000000E71C
:100D700000914128422A0029021E022F0000002073
:100D8000022102220200004C0214021A0200000892
:100D9000021502170200002B0204021602000007CF
:100DA0000209020A02000001001D021B02000006E7
:100DB000021902050230020100E002E2020000E333
:100DC0000201000100010087022602250200003412
:100DD0000223022E00000089021302120200000CFE
:100DE0000218021C0200001F0234000F0200000E55
:100DF000020D020B020000E5023802370200003645
:100E0000021002110232020100E60201000000E7B6
:100E10000201000100010001003A003B0000003C1B
:100E2000003D003E000000010001002400000025FC
:100E30000026000100000001000100210000002246
:100E400000230033020000010001001E0000001F0B
:100E50000020002D022502010001002700000037BC
:100E60000001000100010044004300420000004175
:100E70000040003F000000450001004F000000520C
:100E8000005000010000000100F600F500000051D4
:100E900000F4004B0000000100010001000000010F
:100EA0000001004E002602010001000100000001C7
:100EB00000010001004C00C25C01000100000001C3
:100EC00000010001000000C35CC55CC75C0000C9F4
:100ED0005C010001000000C45CC65CC85C0000CA84
:100EE0005C01000100000001000100AE5D0000ADEA
:100EF0005DAC5DAB5DDE5C005C010050000000514C
:100F00000052004F000100D25CD15CD05C0000CFE9
:100F10005CCE5CCD5C0000010001005D5D0000D591
:100F20005CD45CD35C0000A55DA65DA95D0000A754
:100F30005DA85DAA5D0000010001004D0000004BAE
:100F4000004E004A00DE5C005C0100010000000170
:100F50000001002A0001000001010101010101015D
:100F6000010202020202020202020303030303035C
:100F7000030304040404040404050505050506062A
:100F800006060607070707070808080809090909E8
:100F90000A0A0A0B0B0B0C0C0C0D0D0D0E0E0E0F8E
:100FA0000F0F10101111111212131314141515161E
:100FB000161717181819191A1A1B1B1C1D1D1E1E8F
:100FC0001F202021222223242425262627282929E0
:100FD0002A2B2C2D2D2E2F3031323233343536370B
:100FE00038393A3B3C3D3E3F404142434445464709
:100FF00048494A4C4D4E4F50515354555658595AE2
:101000005B5D5E5F616264656668696B6C6D6F7085
:1010100072737577787A7B7D7E8082838587888AF4
:101020008C8E8F91939596989A9C9EA0A2A3A5A72B
:10103000A9ABADAFB1B3B5B7BABCBEC0C2C4C6C927
:10104000CBCDCFD1D4D6D8DBDDDFE2E4E7E9EBEEE0
:10105000F0F3F5F8FAFDFF0011241FBECFEFDAE040
:10106000DEBFCDBF04B603FE27C0809184069091F9
:101070008506A0918606B09187068730904BA740E1
:10108000B04BD1F410928406109285061092860619
:101090001092870614BE84B7877F84BF0FB6F8947A
:1010A000A895809160008861809360001092600034
:1010B0000FBEE0E0F8E3099511E0A0E0B1E0E2E264
:1010C000FEE602C005900D92AE3EB107D9F726E0CC
:1010D000AEEEB1E001C01D92A438B207E1F70E9464
:1010E00075080C940F370C940000CF93DF93CDB7A5
:1010F000DEB7E2970FB6F894DEBF0FBECDBF84B760
:10110000877F84BF0FB6F894A895809160008861AE
:1011100080936000109260000FBE90E080E80FB6F0
:10112000F89480936100909361000FBE85B780684A
:1011300085BF85B7806885BF84E292E29093EF0116
:101140008093EE010E94AA1A0E94C91A8091E200BF
:1011500084608093E200789480917D028823A1F0DE
:101160001091E9001F709091EC00892F817090FD23
:1011700080E8182B1092E9008091E80083FD0E941E
:101180008E171F701093E90082E084BD93E095BD37
:101190009AEF97BD80936E001092F1011092F201C8
:1011A0001092F3011092F4010E94512B811102C0A0
:1011B0000E94422B0E94A224809300018091000192
:1011C000882321F010928C0185E203C085E2809390
:1011D0008C0180938D010E94102481110E9438346B
:1011E00006E011E0D8018D918D010E940920B1E047
:1011F0000A301B07B9F701E011E086E0E82E81E034
:10120000F82EF80181918F010E940920E016F10665
:10121000C1F780910001882311F090E001C095E0B2
:101220009093F60185E0891B8093F5010E941024BC
:10123000811102C00E943B34E9E9F4E083EA94E0C2
:10124000A7E3B2E011921D928E179F07D9F70E9473
:101250004226811102C00E944D2682E090E00E9449
:101260004F3680932C0284E090E00E944F36182F76
:1012700082E290E00E944F36212F30E0382B3093ED
:10128000F8012093F7010E941E208FE39CE901974B
:10129000F1F700C000000E941E208091370280FFFD
:1012A00008C06FEF7FEF80E090E00E9481360E94DF
:1012B0000F2983E090E00E944F360E94732E8091A8
:1012C0008C020E94741E91E0833009F090E0892F17
:1012D0000E94D81E83E08093270280E280938D02D3
:1012E0000E94CC326DE070E081E491E00E946517CD
:1012F000892B09F043C08091270263E070E081FDF3
:101300003AC08EE391E00E946517892BB9F56DE034
:1013100070E08EE291E00E946517892B79F50E94BA
:101320005529DC01CB01805A9541AF4FBF4F8093C7
:10133000440690934506A0934606B0934706E0E91D
:10134000F2E080E092E0DF019C011D9221503040EC
:10135000E1F7F0939704E09396048FEF9FEF90935B
:101360008F0280938E0281E0809349068093480625
:101370001092280203C08BE391E0C5CF8091F90160
:10138000811138C00E944226811104C00E944D265E
:101390000E949B2F88E090E00E945736609387025E
:1013A000709388028093890290938A028091430609
:1013B0008360809343066E7F71F40E949B2F88E0C8
:1013C00090E00E9457366093870270938802809362
:1013D000890290938A020E944D2F0E94702B809167
:1013E000870280FF04C060E086950E94A03181E002
:1013F0008093F9010E94811D0E94102481112EC04A
:1014000083EB9EE1909363018093620125E130E0DC
:1014100030935E0120935D0185E390E0909361013C
:101420008093600140E65CE150936D0140936C0154
:10143000309368012093670190936B0180936A0158
:1014400044ED5EE150937701409376013093720151
:101450002093710190937501809374010E9442263C
:10146000882391F08FE090E00E945736162F072FC7
:10147000862F8F770E94BA1E111F1127111F03702C
:10148000000F102B10935E0280E00E94881E88E7F8
:1014900091E090934D0680934C06BCE38B2E912CEB
:1014A000A12CB12CAE014F5F5F4F3A01A0E44A2E50
:1014B00080917D02853009F04DC000E112E18091FC
:1014C0007D02853009F040C080917D02843039F181
:1014D0000E94632A0E94E9301092500688E190E051
:1014E0000FB6F894A895809360000FBE40926000FC
:1014F00083B7817F846083BF83B7816083BF789423
:10150000889583B78E7F83BF0FB6F894A895809196
:101510006000886180936000109260000FBE80912F
:101520007C02882309F4CBCF0E941E20ABE9B1E0F6
:10153000E7E3F2E091918D91892309F09AC592E059
:10154000E134F907B9F7BBCF109270020E94772EF1
:101550000E94DC290E941E20582E81110E945529CC
:10156000ABE9B1E0BEA7ADA72DE232E0AD01A7E344
:10157000B2E000E010E0C02EFD90FA018191AF01D1
:10158000F822F90181919F018F2549F1D12CEE2498
:10159000E3949E2D9823F1F00E941024882399F063
:1015A000D9A2CAA2FE2081E009F480E08BA30E94A8
:1015B00061298160782F9DA38CA349A15AA16BA1B9
:1015C0008DA10E94CA1DF801E35DFD4F8081E826D0
:1015D000E0821AC0D394EE0CF8E0DF12DACF0F5F8E
:1015E0001F4F0A30110539F68FEF8EA38FA318A66F
:1015F0000E9461298160782F9AA789A74EA15FA1D7
:1016000068A58AA50E94CA1D80914206882309F414
:101610006AC080914106E0918702E695E81BE0935D
:101620003D06823059F4F0E0E25BFE4FE4910E2F6C
:1016300010E0FCE2EF2EF8E2FF2E06C000ED17E00E
:10164000EEEAEE2EE7E2FE2E80913E06882361F060
:1016500010923E060E94A12790933C0680933B0681
:101660001092400610923F060E94A127E0913B068F
:10167000F0913C069C012E1B3F0B2F3F3F4798F5F6
:101680002091FC012223B1F01092FC012091FA017B
:101690003091FB01821B930B8F3F9F4758F4205DD5
:1016A0003A483093FB012093FA0180914306886009
:1016B00080934306C0903F06D09040060E0F1F1F38
:1016C00010933C0600933B068BE396E0F7010995E7
:1016D00080913F0690914006892B29F4CD2819F07E
:1016E00081E08093FC0180914906882309F40CC2B3
:1016F0008091290290912A020E944629C29708F4FB
:10170000FCC00E94612990932A028093290280E9FB
:1017100092E090939704809396040E94102488236B
:1017200061F182E593E00E94251781E00E94F02A92
:1017300081E00E94F02A81E00E94F02A80918C02D0
:101740000E94741E813051F098F0823061F0833035
:1017500079F460E870E082E591E0CDC060E870E087
:1017600082E592E0C8C060E870E082ED91E0C3C01D
:1017700060E870E082ED92E0BEC00E94552928EE3C
:1017800033E040E050E00E94A33620930302309300
:10179000040240930502509306028AE694E00E94F8
:1017A000251781E00E94F02A81E00E94F02A86E657
:1017B00094E00E94251760910302709104028091C9
:1017C000050290910602A50194010E94A336ACE3A4
:1017D000B0E00E94D236A50194010E94A336DC013C
:1017E000CB014AE06DEF71E00E941A368DEF91E077
:1017F0000E94331784E694E00E94251781E00E943E
:10180000F02A80E694E00E9425176091030270910F
:1018100004028091050290910602A50194010E94A4
:10182000A336CA01B901A50194010E94A336DC01C7
:10183000CB014AE06DEF71E00E941A368DEF91E026
:101840000E9433178EE594E00E94251781E00E94E4
:10185000F02A8AE594E00E942517609103027091B6
:1018600004028091050290910602A50194010E9454
:10187000A336DC01CB014AE06DEF71E00E941A361D
:101880008DEF91E00E94331788E594E00E942517C0
:1018900081E00E94F02A81E00E94F02A81E00E940B
:1018A000F02A81E00E94F02A8091030290910402C4
:1018B000A0910502B091060283709927AA27BB2741
:1018C00060E470E082309105A105B10579F08330C4
:1018D0009105A105B10569F00197A105B10519F0C0
:1018E00088E194E008C088ED93E005C088E993E0C2
:1018F00002C088E593E00E94A32A809149068823CC
:1019000009F4E7C020918E0230918F022115310534
:1019100009F4DFC0809128028111DBC0082F10E09C
:10192000CC24C394D12C082E02C0CC0CDD1C0A940C
:10193000E2F7A9014C215D21452B11F48F5FEECF19
:1019400090912702980165E0220F331F6A95E1F715
:1019500090FD12C08295880F807680938601220FB9
:10196000232F221F330B319520938901815E8093B1
:10197000870110928A0112C045E0369527954A9555
:10198000E1F7220F220F220F209386011092890186
:10199000295F2093870183E080938A0124E630E069
:1019A00047E050E064E871E088E70E948333892BC8
:1019B00009F08FC08091270280FD22C0A80125E098
:1019C000440F551F2A95E1F740575D4F04E610E09C
:1019D00020E230E060E488E70E94AA33892B09F016
:1019E00078C00E947D2AC094D09480918E029091FC
:1019F0008F02C822D922D0928F02C0928E0269C073
:101A000080E2E7E0F2E0DF011D928A95E9F77801D4
:101A100095E0EE0CFF1C9A95E1F7E7E9F1E0FAABEF
:101A2000E9AB23E931E03CA72BA7A9A9BAA92D91DD
:101A3000BAABA9ABEBA5FCA58191FCA7EBA7A701CD
:101A4000480F511DDA01A057BD4FB8ABAFA730E02A
:101A5000295F3D4FF90197E0AF01421B530B71E045
:101A600001C0770F4A95EAF72FA438A860E0D101AA
:101A70008D911D018723192F161B1770412F012EE1
:101A8000000C550BB82F01C0BB0F1A95EAF71B2F9E
:101A90005195419551094770552701C086954A9542
:101AA000EAF7182B8081182B10836F5F6830F9F6E6
:101AB000915031969F3F81F6E9A9FAA9EB59F1407F
:101AC00009F0B3CF04E610E020E230E047E052E056
:101AD00081CF809148068823B9F00E945529009152
:101AE0004406109145062091460630914706DC01D8
:101AF000CB01801B910BA20BB30B8F3F9F4FAF4FBE
:101B0000BF4710F40E94632A51100E947D2A0E9450
:101B1000E9300E94DC2990912B02891721F00E9464
:101B2000DC2980932B0280917D02843009F0BCC1B6
:101B300083E08093E9008091E80082FFB5C1809145
:101B4000E80085FF23C00E94011C81111DC080E2B6
:101B5000E82EF12C8E010F5F1F4F09C08091F1001C
:101B6000D8018D938D01B1E0EB1AF10869F08091F5
:101B7000E80085FDF3CF8091E8008B778093E80043
:101B80000E94011C882399F391E001C090E08091AC
:101B9000E8008B778093E800992309F485C1E981F7
:101BA0008E2F90E0FC013197E331F10508F056C12A
:101BB000EA5AFF4F0C94C5361A8289E0B0C08A8178
:101BC000823009F46EC2833051F0813009F046C191
:101BD0000E9455299B838C837D836E8341C1AE0116
:101BE0004D5F5F4F21E432E0E7E3F2E09191ADA574
:101BF000BEA58D91BEA7ADA78923DA018D93AD0156
:101C00002E173F0799F72CC18A81823009F026C12F
:101C10006B817C818D819E810E94CB360E94202B1E
:101C20001FC14C816B818A810E94302A9D8340C2F2
:101C30000D811E811027012710278C81EB809A814E
:101C4000B0E1EB9E70011124E0EA9E9FE00CF11CD4
:101C50001124E80EF11CE80EF11C612FC7018796D4
:101C60000E946336602FC70188960E946336F8C0D1
:101C70000E94FC29F5C08A818138B1F050F4803887
:101C800009F0EEC020E04B816091890280918802CA
:101C900023C08238E9F0833809F0E2C020E04091A7
:101CA0008A026C818B8118C060E08B810E94A03118
:101CB0008B81811103C00E948931D2C0809187023B
:101CC00081608093870260E086950E94A031C8C041
:101CD0008B8180938B02C4C00E944930C1C08A812D
:101CE000813899F030F4803809F0BAC080918A02C6
:101CF00016C0823891F0833809F0B2C08091880212
:101D00008B83809189028C83ABC08091870280FF96
:101D100002C0869504C080E002C080918B028B8354
:101D20009FC0609187027091880280918902909192
:101D30008A020E94672F94C080E14DC081E08A83AF
:101D400089E5EDCF0A811B81102701271027EC8040
:101D5000F12C6301C80189559D4F96012619370959
:101D60002E153F0508F07CC00935F1E01F0730F45F
:101D70000E944F36D60114968C9302C0F60114824D
:101D80000F5F1F4FFFEFCF1ADF0AE4CF0A811B81DD
:101D9000102701271027EC80F12C6301C801895519
:101DA0009D4F9601261937092E153F0508F058C09A
:101DB000093521E0120728F4D60114966C910E948F
:101DC00063360F5F1F4FBFEFCB1ADB0AE7CF0E94CE
:101DD000EC2946C084E08A8343C00A811B81102716
:101DE00001271027EC80F12C6301C801879696012A
:101DF000261937092E153F0598F50038E2E01E0731
:101E000030F40E944F36D60114968C9302C0F6012E
:101E100014820F5F1F4FFFEFCF1ADF0AE6CF0A8150
:101E20001B81102701271027EC80F12C6301C801CA
:101E300087969601261937092E153F0588F4003834
:101E400022E0120728F4D60114966C910E946336A2
:101E50000F5F1F4FBFEFCB1ADB0AE9CF8FEF8983EC
:101E600080917D02843001F51091E9001F709091FE
:101E7000EC00892F817090FD80E8182B82E0809320
:101E8000E9008091E80080FF0CC040E050E060E293
:101E900070E0C3010E94341C8091E8008E7780932B
:101EA000E8001F701093E9000E941024882309F4B1
:101EB000FFCA0E94552920914702211176C0009146
:101EC00043021091440220914502309146026B0179
:101ED0007C01C01AD10AE20AF30A44EFC41641E0B9
:101EE000D406E104F10408F460C0609343027093E7
:101EF0004402809345029093460280914102909162
:101F0000420201969093420280934102198283011A
:101F100021E040E050E060E088E00E94AC238111C5
:101F200006C080914102909142020A97F4F181E04B
:101F30008093470280934D029981911101C080E006
:101F400080934E0280914C02882331F00E94A2249B
:101F5000882321F012E003C010E001C011E080915D
:101F60004E02882331F00E94A224882321F081E0D0
:101F700003C080E001C082E0182B86E290E00E945E
:101F80004F36C82ED12CE12CF12CD701C6018C7F05
:101F9000BC01CD01612B6C157D058E059F0511F0EF
:101FA0000E94202B81E00E94881E80914E0288238F
:101FB00009F47CCA0E9455296B017C01809148027A
:101FC00090914902A0914A02B0914B02A70196015B
:101FD000281B390B4A0B5B0B243031054105510599
:101FE00080F119821A821B821C828E010F5F1F4FA3
:101FF00024E040E050E060E089E00E94AC238823C8
:10200000C1F069817A8180915302909154020E94BB
:10201000FD1E90935402809353026B817C818091CA
:102020005502909156020E94FD1E90935602809395
:102030005502C0924802D0924902E0924A02F092C0
:102040004B0280915802882309F42CCA80915702D0
:10205000898300E010E020E0AE014F5F5F4F61E058
:102060008AE00E94AC23882309F41CCA109258020B
:1020700019CA09BD19BD09B400FEFDCF8091D80071
:102080008F7D8093D8008091E00082608093E00093
:102090008091E00081FDFCCF109270020E94772EAB
:1020A0000ECA86E290E00E944F361B821C821D827F
:1020B0008E83D6CE3F924F925F926F927F928F9295
:1020C0009F92AF92BF92CF92DF92EF92FF920F93C7
:1020D0001F93CF93DF93CDB7DEB767970FB6F89412
:1020E000DEBF0FBECDBFFC01808191812381348191
:1020F000232B31F09F3F31F491E08F3F19F403C05F
:1021000091E001C090E090FDB4C58F0185E0DE0153
:10211000539601900D928A95E1F7D80112962C9171
:102120008B899C89222349F00E94EC2BF82E682F82
:102130008B899C890E94212E03C00E94F52DF82EC8
:102140006B897C898F2D0E94562A7C01F80182813F
:10215000882309F409C1C70182519F45409708F0BF
:1021600046C18FEF93E00E944F36811108C1FEEE09
:10217000EF0E57EA852E52E0952EEE2079F081146D
:1021800024E0920609F4FBC0C4010E944F3681117D
:1021900001C0EA943FEF831A930AEFCF19821A82A3
:1021A0001B821C82442443944AE0342E74018FEF36
:1021B000E81AF80AC4010E944F3689831A828823DC
:1021C00009F4DDC09FEF980F933060F48A83498251
:1021D00092E0890E911CC7010E944F368B838111BA
:1021E00002C0CDC04701DE0111967D01F7012081BB
:1021F0002223E1F2213009F058C08181813089F435
:102200006701F2E0CF0ED11CD70112968C91893371
:1022100019F460E570E002C065E070E00E941B2FD9
:102220000AC0823051F46701B2E0CB0ED11CF70135
:1022300082810E94C22E760193C0833051F46701DF
:10224000F2E0CF0ED11CD70112968C910E94912EF4
:10225000F2CF843021F0BFEFEB1AFB0A81C0F70107
:102260002281C70102967C0180E090E030E020539B
:1022700031092A30310570F4389EA001399E500D85
:102280001124C901840F951FAFEFEA1AFA0AF7016A
:102290002081ECCF009709F463C0AFE9BFE011974C
:1022A000F1F700C000000197F5CFE22FF0E0E35610
:1022B000FB4F5490822F86958695869590E0FC0181
:1022C000E357FB4F64902770712C022E02C0759467
:1022D00067940A94E2F7B1E06B227724FC01E3589B
:1022E000FB4FA490B12C022E02C0B594A7940A947F
:1022F000E2F7E1E0AE22BB24FC01E359FB4FC490BE
:10230000D12C02C0D594C7942A95E2F7F1E0CF22F0
:10231000DD246114710419F081EE0E94C22EA11413
:10232000B10409F45BC086EE0E94C22E29E3521666
:1023300009F44EC065E070E0852D0E941B2FAB288C
:1023400019F086EE0E94912E672819F081EE0E9406
:10235000912ECD2829F065E070E08CE20E941B2FC1
:102360003FEFE31AF30A42CF80E1E8168FE5F80663
:1023700009F077C481E00E945C2E0E944B17809187
:10238000F104877009F475C4D80112968C918823E2
:1023900009F46FC48091F80182FD6BC482E06796F6
:1023A0000FB6F894DEBF0FBECDBFDF91CF911F9166
:1023B0000F91FF90EF90DF90CF90BF90AF909F90E4
:1023C0008F907F906F905F904F903F900C94F1268C
:1023D00060E570E089E30E941B2FB3CFF9E35F1241
:1023E000A9CF60E570E089E30E941B2FADCF20E10B
:1023F000E2162FE5F20611F481E006C031E1E316A2
:102400003FE5F30621F482E00E94682EB6CFF092F9
:102410006502E0926402F8018081918190936702E5
:1024200080936602C7019A9581159F4108F099C073
:10243000F701FF27E43FF10508F447C0E93FF10544
:1024400040F0EC3A8DE5F80709F03FC0F8018281D1
:102450006FC0E45FF10981E090E09C0101C0220FB0
:10246000EA95EAF7D80112964C9186E0ECE7F6E09F
:10247000DE01179601900D928A95E1F786E0FE0144
:102480003796DE011D9601900D928A95E1F79885A9
:10249000442319F0892F822B03C0822F8095892332
:1024A0008E8796E0FE013D96DE01119601900D9219
:1024B0009A95E1F78A8386E0FE013196ACE7B6E0B3
:1024C00001900D928A95E1F74EC0D80112968C9139
:1024D000882309F464C0E55AFD45EA30F10508F0A7
:1024E00042C0E759FF4F0C94C53680E00E94BA1EE7
:1024F00010925E0244CF4091570250915E0250FB11
:1025000047F95695537060E070E08FE090E00E94CC
:10251000753635CF81E001C08FEF0E94EC1E2FCFC2
:102520008AE0FBCF86EFF9CF9091590281E08927AD
:102530000E94D81E24CF80915E02811101C084E0E8
:102540008F5F06C080915E02811101C084E08150DE
:1025500018160CF081E0883008F087E080935E0266
:102560000ECFF70167CF26E1E2162CE5F20689F5DA
:10257000809170028A7AF80192819923A9F091E002
:10258000811101C090E090936E02882311F065E301
:1025900001C069E281EB94E00E94962917C0A6E190
:1025A000EA16ACE5FA06A9F480916E02882311F0D0
:1025B00085E301C089E2E1EBF4E09281891301C077
:1025C0001282319624E0E73BF207B9F70E94C42655
:1025D000D6CED80112968C918111ADC08091700237
:1025E000827239ECE3163CE5F30609F48EC010F56F
:1025F000A5ECEA16ACE5FA0609F478C070F4E3EC51
:10260000EE16ECE5FE0609F467C008F06AC022EC9D
:10261000E2162CE5F206B1F1C7C037ECE3163CE553
:10262000F30609F468C008F06BC040EE50E367EDB4
:1026300070E379C0ADECEA16ACE5FA0609F476C0B1
:1026400068F4EBECEE16ECE5FE0609F463C008F066
:1026500066C043EB50E367EA70E365C026EDE2161F
:102660002CE5F20648F43FECE3163CE5F30608F0EF
:1026700086CE0E94561783CE8DE5E816F80609F43B
:102680007ECE92C08091870280FF20C08E7F809393
:1026900087026091870270918802809189029091EF
:1026A0008A020E94672F0E94702B809143068160EE
:1026B000809343069FEFA0E7B2E09150A040B04066
:1026C000E1F700C000000E94922B59CE81608093F8
:1026D000870261E086952CC040EE51E369EE71E31C
:1026E00022C049EE51E360EE71E31DC047ED50E3B7
:1026F00060EE70E318C04FEB50E36BEC70E313C077
:102700004BEC50E36FEB70E30EC047EA50E363EB32
:1027100070E309C049E75FE26AE87FE204C04AE883
:102720005FE269E77FE20E946A2B29CE61E081E0E7
:102730000E94A03124CEEAE5EE16EDE5FE0679F121
:1027400060F4E1142CE5F206D1F03EEDE3163CE531
:10275000F30651F50E944D2612CE8BE5E8168DE565
:10276000F806F9F09CE5E9169DE5F906E9F4809193
:10277000F80182FB882780F991E0892713C0109225
:1027800070020E94772EAFEFB4E3ECE0A150B040AE
:10279000E040E1F700C000000E940F29F0CD81E089
:1027A00001C080E00E940E27F8018281E080F18064
:1027B000882349F0C7010E94EC2BD82E682FC7014F
:1027C0000E94212E04C0C7010E94F52DD82EB7010A
:1027D0008D2D0E94562A0E94B924B82EF92E982ECB
:1027E000F801E280A580A2943FE0A3228091F10449
:1027F0008770B9F0EE20A9F0892F807F803421F016
:1028000080E28B0D883068F08091F80182FD09C06C
:1028100082E00E94F1268091F1048770DD24D39438
:102820008111D12CCF2CC2942FE0C2228C2D90E0AC
:102830008C30910508F0E0C1FC01ED58FF4F0C947D
:10284000C5368F2D807F9F2D9F70F92E882319F01C
:10285000F29490EFF922EE20B9F0FF2009F4B5C10F
:1028600080E28B0D883010F0911006C080917002CC
:10287000F82AF092700205C08091F304F82AF092D1
:10288000F3040E94C426A1C18B2D0E94912EFF202B
:1028900009F4B2C180E28B0D883098F1992089F15A
:1028A000F0948091F304F822F092F3042DC08F2D60
:1028B000807F9F2D9F70F92E803219F0F29480EF67
:1028C000F8228B2D992021F0F1E09F16D9F149C013
:1028D0008091F80182FF1BC0EE2069F0FF2039F0E3
:1028E00080917002F82AF09270020E94C42680E063
:1028F0000E94C22E81C180E00E94912EFF2009F427
:102900007BC18F2D0E94BD260E94C42675C1EE207A
:1029100081F08091F404AA2051F021E0A21207C0B6
:10292000F82AF81609F468C1F092F40465C18F29F9
:1029300010C0AA2021F031E0A31609F45DC10E9465
:10294000B7262AC0EE2041F085E08A1508F454C16C
:102950008F2D0E94872E50C194E09A1508F44CC127
:102960001BC0EE2061F0AA2099F3D80115968C9136
:10297000159780FF2AC18F7015968C93E9CFAA20F6
:1029800059F0893309F02FC1BFEFE7EEF3E0B15002
:10299000E040F040E1F72BC18F2D0E94802E2CC12A
:1029A0008F2D86958695837019F0813061F024C152
:1029B000EE2021F08B2D9F2D937002C080E090E0DF
:1029C0000E94C6291FC1EE2021F08B2D9F2D9370F0
:1029D00002C080E090E00E94B02914C18F2D837066
:1029E000B1F5E1100DC14B2D429546954770440F4E
:1029F000440F8B2D8F7090E09C01042E01C0220F9C
:102A00000A94EAF7B4FE08C08FE090E001C0880F96
:102A10004A95EAF7809501C080E04F2D469546958E
:102A20004370423069F088F49091F504413019F018
:102A3000822B892302C0922B892B0E94732EE0C027
:102A4000822B9091F5048927F8CF822BF6CFEE20C8
:102A500019F08F2D817001C08695882309F4D0C0AC
:102A60004B2D429546954770440F440F8B2D8F7028
:102A700090E09C01042E01C0220F0A94EAF7B4FEF4
:102A800008C08FE090E001C0880F4A95EAF7809572
:102A900001C080E04F2D469546954370423059F075
:102AA00078F490918C02413019F0822B892309C06F
:102AB000922B892B06C0822B90918C02892701C012
:102AC000822B0E944C2E9CC09F2D9F70F92EEE20D1
:102AD00039F0892F0E94682E8B2D0E94872E90C07E
:102AE0008B2D0E94802E8F2D0E945C2E89C08B2DF5
:102AF000A2EF9A1681F1A91538F0B0EF9B1659F0A4
:102B0000E1EF9E1619F15DC0F3EF9F1659F124EF26
:102B10009216C1F056C0EE2081F034E03A1508F468
:102B20006BC02F2D2F7181E090E001C0880F2A9596
:102B3000EAF790918C02892720C085E08A1508F475
:102B40005BC0EFCF8091F80182FF1AC0EE2029F020
:102B50008F2D8F7129C0EE20D9F38F2D8F710E9498
:102B60005C2E4AC0EE2041F09F2D9F7181E001C094
:102B7000880F9A95EAF701C080E00E944C2E3CC075
:102B8000EE20A9F09F2D9F71F92E892F0E94682EAB
:102B90008091F80182FD07C0A8E0FA9EC0011124CF
:102BA00083608093F1048F2D0E94682E25C081E000
:102BB0000E94F126B1E0BA15F8F482E00E94F126F5
:102BC0001BC0EE2021F0AA2019F28B2D91CEAA2055
:102BD00021F2893341F4EFEFF7EE23E0E150F040CA
:102BE0002040E1F704C08FE19EE40197F1F700C0B7
:102BF00000008B2D0E94912E88EF8C0D843010F4F4
:102C00000E94DC29DD20A9F18091F10480FD31C012
:102C1000D80112961C928595859585950E94682EFF
:102C2000C8010E945A108091F1048595859585957B
:102C300067960FB6F894DEBF0FBECDBFDF91CF9180
:102C40001F910F91FF90EF90DF90CF90BF90AF90CA
:102C50009F908F907F906F905F904F903F900C94DB
:102C60005C2E91E1E9169FE5F90609F0D0CB82E0F0
:102C700082CB67960FB6F894DEBF0FBECDBFDF9153
:102C8000CF911F910F91FF90EF90DF90CF90BF9069
:102C9000AF909F908F907F906F905F904F903F90FC
:102CA0000895CF92DF92EF92FF920F931F93CF93ED
:102CB000DF937C016B01809198048A3018F001E069
:102CC00010E002C00AE010E0C1E0D0E0F8946EE944
:102CD00074E0C701F60109957894811115C0219619
:102CE0000C171D0794F0CC9F9001CD9F300D300D37
:102CF000112480E090E045E34A95F1F70000019649
:102D000082179307C1F7E2CF81E0DF91CF911F9146
:102D10000F91FF90EF90DF90CF900895FC01AC01F0
:102D20004B5F5F4F8FEF91E32191822728E030E0E6
:102D300087FF03C0880F892701C0880F2150310900
:102D4000B9F7E417F50781F70895CF93DF938A3039
:102D500011F481E003C08D3029F480E0DF91CF9140
:102D60000C94F02A682F809196049091970426E0A5
:102D7000FC01A0E9B4E001900D922A95E1F7603ED4
:102D800030F026E0FC0111922A95E9F70AC0F6E03E
:102D90006F9FB00111246D56794F46E050E00E94BC
:102DA0001136C0919604D091970446E050E0BE01E0
:102DB00080E994E00E94F936892B49F19E0120595F
:102DC0003240A90185E0569547958A95E1F781E063
:102DD00090E0BC0102C0660F771F4A95E2F7409170
:102DE0008E0250918F02462B572B2B5F3F4F65E091
:102DF000369527956A95E1F702C0880F991F2A95A5
:102E0000E2F7842B952B90938F0280938E029E0184
:102E10002A58324040918D02642F70E0C9010E940F
:102E2000FD35481B463010F4240F311D211582E07A
:102E3000380710F020E030E020573D4F30939704E2
:102E400020939604DF91CF910895CF93DF93EC0107
:102E5000FE018491882321F00E94A5162196F8CFC7
:102E6000DF91CF9108950F931F93CF93DF93EC01E0
:102E7000FC0101900020E9F78F0101501109C017F2
:102E8000D10720F489910E94A516F9CFDF91CF9147
:102E90001F910F91089580918C02982F9670963013
:102EA00011F4886001C0877F0C944C2E80918702BA
:102EB00080FF07C0869582588F77833010F40C947A
:102EC000E93161E082E00C94A031EF92FF920F9320
:102ED0001F93CF93DF93EC017B0164E670E088E7FA
:102EE0000E94D2328C01EC0EFD1ECE15DF0561F082
:102EF00017FD0AC0FE01849164E670E00E9453331E
:102F00008C012196892B89F30E94D733C801DF9168
:102F1000CF911F910F91FF90EF9008951F93CF9342
:102F2000DF93CDB7DEB7AA970FB6F894DEBF0FBE1A
:102F3000CDBFEFE7F2E087E892E02091F100219326
:102F40008E179F07D1F780918002833009F463C008
:102F500030F4813071F0823009F49FC0B6C08A30FD
:102F600009F48BC08B3009F46EC0893009F0ADC014
:102F700020C080917F02813A09F0A7C08091E800CB
:102F8000877F8093E8008091830290918402892B4F
:102F900021F468E083E792E003C060E080E090E025
:102FA00070E00E94B1288091E8008B778093E80060
:102FB0008CC080917F02813209F087C080918302AA
:102FC00090918402009719F0029709F07EC08091D9
:102FD000E800877F8093E8008091E80082FD05C0CB
:102FE00080917D028111F8CF70C02091F300809113
:102FF000F20090E0922B029731F48091F100813041
:1030000011F0863021F48091F1008093720280915A
:10301000E8008B7756C080917F02813A09F055C055
:103020008091830290918402892B09F04EC0809197
:10303000E800877F8093E8008091E80080FFFCCF64
:1030400080918B0139C080917F028132F1F58091AE
:10305000830290918402892BC1F58091E800877FDB
:103060008093E8000E945D288091810280938B010B
:10307000109270020E94772E28C080917F028132C8
:1030800021F58091E800877F8093E8000E945D2809
:10309000809182028093710218C080917F02813AF0
:1030A000A1F48091E800877F8093E8008091E80098
:1030B00080FFFCCF809171028093F1008091E80045
:1030C0008E778093E8000E945D288091E80083FF5E
:1030D000DFC180917F0290918002492F50E04A30F9
:1030E000510508F0D5C1FA01E158FF4F0C94C536DF
:1030F000803821F0823809F0CBC108C080917B0272
:1031000090917C02992389F082600FC080918302A4
:103110008F70873008F0BCC18093E9008091EB008C
:1031200085FB882780F91092E9009091E800977F4D
:103130009093E8008093F1001092F10070C1282F65
:103140002D7F09F0A5C1882319F0823061F0A0C15C
:1031500080918102813009F09BC1933009F080E0B9
:1031600080937C022EC08091810281112AC08091BF
:1031700083028F702FEF280F263008F089C18093CB
:10318000E9002091EB0020FF1CC0933021F48091D6
:10319000EB00806214C09091EB0090619093EB0083
:1031A00021E030E0A90102C0440F551F8A95E2F7E3
:1031B0004093EA001092EA008091EB0088608093CF
:1031C000EB001092E9008091E800877F8093E8008F
:1031D0000E945D285DC181115BC1109181021F7742
:1031E0008091E3008078812B8093E3008091E80058
:1031F000877F8093E8000E945D288091E80080FF2F
:10320000FCCF8091E30080688093E300111102C03D
:1032100082E001C083E080937D023AC18058823011
:1032200008F036C120918102309182022C3D53E09A
:10323000350779F583E08A838AE289834FB7F8946A
:10324000DE01139620E03EE051E2E32FF0E05093E0
:103250005700E49120FF03C0E295EF703F5FEF70ED
:103260008E2F90E0EA3010F0C79601C0C0968D9383
:103270009D932F5F243149F74FBF8091E800877FEE
:103280008093E8006AE270E0CE0101960E94B128C6
:10329000B4C08091830290918402432F552743301C
:1032A0005105A9F068F44130510509F400C14230DC
:1032B000510509F0EDC08BE590E0EAEFF5E04BC079
:1032C0004132510529F14232510589F1E1C0C9016C
:1032D000992781309105A1F058F0029709F0D8C0E4
:1032E000E7E6F6E0E4918E2F90E0E7E6F6E030C006
:1032F000EFE8F6E0E4918E2F90E0EFE8F6E028C0EA
:10330000EDE7F6E0E4918E2F90E0EDE7F6E020C0E7
:103310008330910508F0BCC0880F991FFC01E2556D
:10332000FE4F0190F081E02D89E090E014C08330E1
:10333000910508F0ADC0FC01EE0FFF1FE855FE4FF0
:103340000190F081E02DDC01AB55BE4F8C9190E0F7
:10335000009709F49DC02091E800277F2093E800A2
:1033600020918502309186022817390708F4C90197
:1033700040E0009789F120917D02222309F43DC0AD
:103380002530D9F12091E80023FD37C02091E800D5
:1033900022FD2FC02091E80020FFEBCF4091F300E9
:1033A0002091F20030E0342B009759F0283031059D
:1033B00040F444914093F100319601972F5F3F4FC5
:1033C000F3CF41E02830310509F040E02091E800DA
:1033D0002E772093E800CDCF4111CDCF0AC0809148
:1033E0007D02882351F0853041F08091E80083FD13
:1033F00004C08091E80082FFF2CF8091E8008B77D3
:103400008093E80045C0803809F042C08091E80010
:10341000877F8093E80080917E028093F100809105
:10342000E8008E77D3CE811133C0809181029091D4
:1034300082029927029764F58091E800877F809344
:10344000E8001091810210937E020E945D28111104
:1034500006C08091E30087FD02C081E001C084E0E6
:1034600080937D0242E061EC81E00E947C2842E290
:1034700061EC84E00E947C2842E261EC82E00E94E0
:103480007C2842E260EC83E00E947C2880917D02EF
:103490008091E80083FF10C08091E800877F8093CF
:1034A000E8008091EB0080628093EB0005C082E130
:1034B00090E0E5E5F6E04FCFAA960FB6F894DEBFB0
:1034C0000FBECDBFDF91CF911F9108951F920F9234
:1034D0000FB60F9211242F933F934F935F936F93E7
:1034E0007F938F939F93AF93BF93CF93DF93EF938C
:1034F000FF93C091E900CF708091EC00D82FD1707C
:1035000080FDD0E81092E9008091F000877F8093E1
:10351000F00078940E948E171092E9008091F000DC
:1035200088608093F000CD2BCF70C093E900FF91AD
:10353000EF91DF91CF91BF91AF919F918F917F914B
:103540006F915F914F913F912F910F900FBE0F9010
:103550001F901895E8EDF0E080818E7F80831092B7
:10356000E2001092DA001092E100A0EEB0E08C913F
:1035700081608C9380818F77808319BCA7EDB0E048
:103580008C918E7F8C9380818F7E808310926F02CE
:103590000895CF92DF92EF92FF920F931F93CF93F4
:1035A000DF93C8EDD0E088818F7E8883E7EDF0E07F
:1035B00080818160808384E082BF81E080936F029C
:1035C00088818E7F888302EE10E0F80110821092CD
:1035D000DA0081EEC82ED12CF601108288818F7717
:1035E000888388818068888388818F7D888319BCDF
:1035F00010927D0210927E0210927C0210927B0249
:1036000090EEE92EF12CF70180818B7F80838881F9
:103610008160888342E060E080E00E947C28F601BF
:1036200080818E7F8083F8018081816080838081AA
:1036300088608083F70180818E7F808388818061AC
:103640008883DF91CF911F910F91FF90EF90DF90D2
:10365000CF9008951F920F920FB60F9211242F93BF
:103660003F934F935F936F937F938F939F93AF930A
:10367000BF93EF93FF938091E10082FF09C0809197
:10368000E20082FF05C08091E1008B7F8093E10022
:103690008091DA0080FF2AC08091D80080FF26C088
:1036A0008091DA008E7F8093DA008091D90080FFCC
:1036B00018C080E189BD82E189BD09B400FEFDCF5B
:1036C00081E080937D0280916F0281110FC00E9482
:1036D000AA1A0E94C91A8091E20084608093E200D5
:1036E00005C019BC10927D0210926F028091E1001A
:1036F00080FF17C08091E20080FF13C08091E2003C
:103700008E7F8093E2008091E20080618093E200EE
:103710008091D80080628093D80019BC85E08093A6
:103720007D028091E10084FF30C08091E20084FF3F
:103730002CC080E189BD82E189BD09B400FEFDCFC6
:103740008091D8008F7D8093D8008091E1008F7E9A
:103750008093E1008091E2008F7E8093E20080916F
:10376000E20081608093E20080917E02882311F064
:1037700084E007C08091E30087FD02C081E001C0C2
:1037800083E080937D0280917D028091E10083FF40
:1037900027C08091E20083FF23C08091E100877FF2
:1037A0008093E10082E080937D0210927E028091FE
:1037B000E1008E7F8093E1008091E2008E7F809314
:1037C000E2008091E20080618093E20042E060E0EC
:1037D00080E00E947C288091F00088608093F00057
:1037E000FF91EF91BF91AF919F918F917F916F91D9
:1037F0005F914F913F912F910F900FBE0F901F90AF
:1038000018952091E4003091E50095E64091EC0098
:10381000842F817040FF23C08091E80080FD1DC08F
:1038200080917D02882399F0853099F08091EB009A
:1038300085FD11C04091E4005091E5002417350743
:1038400029F3915011F09A01E1CF84E0089582E0CC
:10385000089583E0089581E0089580E008954091FF
:10386000E80042FFDDCF0895EF92FF920F931F9380
:10387000CF93DF937C018B010E94011C811119C041
:10388000E70101151105A1F08091E80085FD0AC04E
:103890008091E8008E778093E8000E94011C8823C5
:1038A00081F307C089918093F10001501109E9CF9C
:1038B00080E0DF91CF911F910F91FF90EF900895DD
:1038C000CF93DF93ECE4F2E083819481A581B6810C
:1038D000E90188839983AA83BB83148213821682A9
:1038E0001582DF91CF910895FC01DB0122813381A4
:1038F00021388FEF38072CF02038310524F4922F2F
:1039000003C091E801C09FE712969C931297208113
:10391000318121388FEF38072CF0203831051CF029
:103920002FE701C021E813962C931397442339F015
:10393000919512969C931297219513962C93118230
:103940001082138212820895E82FE295EF70F0E062
:1039500031A1282F2F7081E090E001C0880F2A95B7
:10396000EAF7932F982B91A392A18095892382A3A4
:103970000895CF92DF92EF92FF920F931F93CF9310
:10398000DF93FC01EB0190915E02911101C094E084
:103990006081718191509B01092E02C03595279558
:1039A0000A94E2F7D901092E02C0AA0FBB1F0A949C
:1039B000E2F76A1B7B0B71836083628173818B01E9
:1039C000092E02C0159507950A94E2F7D80102C0A6
:1039D000AA0FBB1F9A95E2F76A1B7B0B7383628366
:1039E0000138BFEF1B072CF00038110524F4802F9D
:1039F00003C081E801C08FE78D8321389FEF39072D
:103A00002CF0203831051CF02FE701C021E8922F5F
:103A100091959C83442319F081958D832C830E947A
:103A200055292D81211103C02C81222349F0609357
:103A30005F0270936002809361029093620215C0EE
:103A4000C0905F02D0906002E0906102F09062024C
:103A5000DC01CB018C199D09AE09BF0984369105A3
:103A6000A105B10510F010926302809163029BE002
:103A7000980F973120F4080F009363021D82DF91A5
:103A8000CF911F910F91FF90EF90DF90CF9008950D
:103A900028E030E043E060E086E30C94FB31CF9314
:103AA000DF93D82FC62F0E94481D8D2F80680E945B
:103AB00074328C2F0E9474320E94A4328FEC92E0F8
:103AC0000197F1F700C00000DF91CF910895CF93E7
:103AD000C82F0E94481D8C2F8F770E9474328FE769
:103AE00092E00197F1F700C000000E948C32C82FCD
:103AF0000E94A4329AE69A95F1F700C08C2FCF91DC
:103B00000895CF93DF930E94F331269A0E94481DB7
:103B10006AE58AE30E944F1D2FEF80E792E0215073
:103B200080409040E1F700C0000082E00E94671DE5
:103B300083E00E94671D84E00E94671D85E00E946B
:103B4000671D86E00E94671D60E080E10E944F1DB6
:103B500080E00E94671DD82F81E00E94671DC82F5A
:103B60000E94A432D23419F481E0C13009F080E01F
:103B7000817080934C02882351F064E08FE00E94B2
:103B80004F1D60E080E5DF91CF910C944F1DDF91D8
:103B9000CF9108951F93CF93DF93CDB7DEB767978B
:103BA0000FB6F894DEBF0FBECDBF4B8B5C8B6D8B19
:103BB0007E8B8F8B61111092F30486E09E01235F50
:103BC0003F4FD901E82F1D92EA95E9F795E0FE01F4
:103BD0007396D90101900D929A95E1F79C894E89CF
:103BE0005F897B897D879E876F87598B488BF90119
:103BF000DE01179601900D928A95E1F7CE010796A6
:103C00000E94542C81113EC086E0FE013796DE01F1
:103C1000119601900D928A95E1F7FF81E8856A85FA
:103C20007B856115710531F0EF3F31F481E0FF3F95
:103C300019F403C081E001C080E080FD23C0209121
:103C4000BF0430E0C9010196877099274091F004C4
:103C500050E08417950779F1F983EA837D836C83BB
:103C600096E0929FD001939FB00D1124A054BB4FBA
:103C7000FE01319601900D929A95E1F78093BF0471
:103C80000E942B2716E08091F0049091BF048917C1
:103C900009F1189FC001112480549B4F0E94542C9D
:103CA0008823C1F08091F00490E0019687709927F5
:103CB0008093F004E8CF109270020E94772E109249
:103CC000BF041092F004E9EBF4E086E0DF011D92FE
:103CD0008A95E9F767960FB6F894DEBF0FBECDBFA1
:103CE000DF91CF911F910895982F92959F7019F0B1
:103CF000892F24E001C020E0982F9695969511F029
:103D00002E5F892F982F969509F02F5F822F0895A7
:103D1000CF93DF9380914C02811102C0D5E201C0A4
:103D2000D2E280914D02882331F080914E028111C0
:103D300004C0C5E203C0C0E001C0C2E20E94A224E8
:103D4000811102C08C2F01C080E080938C01D09340
:103D50008D01CD0F10928E01C0938F01C093900101
:103D6000DF91CF91089580914C02F901808382E028
:103D70000C94881E893708F088E78093570291E0F9
:103D80009093580290914C02992369F0882319F07E
:103D90006FEF680F01C064E08FE00E944F1D60E08C
:103DA00080E50C944F1D0895FB0180810C94BA1E90
:103DB000CF93C82F809159028C1751F00E9455293A
:103DC00060935A0270935B0280935C0290935D0251
:103DD000C0935902CF91089520915702211101C03B
:103DE00025E0082E000C990B820F911D181619065C
:103DF00014F081E090E00C94BA1E9C01860F971F8E
:103E000037FD07C077FD0CC097FF0AC08FEF9FE713
:103E100007C077FF05C097FD03C080E090E80895D4
:103E20000895CF92DF92EF92FF920F931F93CF935B
:103E3000DF93CDB7DEB72C970FB6F894DEBF0FBE79
:103E4000CDBF4F83588769877A878B879C878091FE
:103E50004C02882309F443C00E94481D80E50E945B
:103E600074328AEB8A95F1F700C00E948C32887810
:103E700099278038910519F00E94A43230C00E9421
:103E80008C320E948C328C010E948C32E12CF12CFD
:103E9000F82EE02AF12A0E948C328C010E948C328A
:103EA00020E030E0382F022B132B0E94A432F8942C
:103EB000B70180914F02909150020E94FD1E909395
:103EC000500280934F02B8018091510290915202AA
:103ED0000E94FD1E909352028093510278940E949A
:103EE0001024882309F475C00E9455290091AD045F
:103EF0001091AE042091AF043091B0046B017C01AD
:103F0000C01AD10AE20AF30A9701860108301105A6
:103F10002105310508F45DC06093AD047093AE04D3
:103F20008093AF049093B00400915A0210915B0209
:103F300020915C0230915D02DC01CB01801B910B72
:103F4000A20BB30BC297A105B10580F410925002E9
:103F500010924F021092520210925102109254028B
:103F6000109253021092560210925502109159026B
:103F70000E94A224482F112341F0BE01695F7F4FA8
:103F80008FE492E00E94B91C07C0BE01695F7F4FB9
:103F90008FE492E00E94741C0091590210914C022F
:103FA0000E94A22441E04827BE01695F7F4F83E55C
:103FB00092E0011719F00E94B91C02C00E94741C03
:103FC00086E0FE013796A8E6B2E001900D928A9550
:103FD000E1F786E0FE013796DE01119601900D9221
:103FE0008A95E1F729813A814B815C816D817E81DF
:103FF00080E090E02C960FB6F894DEBF0FBECDBFE8
:10400000DF91CF911F910F91FF90EF90DF90CF90B4
:104010000895E82FE295EF70F0E031A1282F2F707E
:1040200081E090E001C0880F2A95EAF7982F9095DB
:10403000932391A392A1892B82A308952F923F925B
:104040004F925F926F927F928F929F92AF92BF92A8
:10405000CF92DF92EF92FF920F931F93CF93DF9354
:1040600039E9C32E34E0D32E4EE9A42E44E0B42E19
:1040700051E0E52E51E0F52E4601312C6624639483
:10408000712C2701D7018C910E94A41C00C0E4016F
:10409000288006E011E0F801C0E0D0E02191A22FD5
:1040A000A295AF70B0E090968C9190E02F7002C016
:1040B000959587952A95E2F780FD08C0C3010C2EDF
:1040C00001C0880F0A94EAF7282A08C0C3010C2E01
:1040D00001C0880F0A94EAF7809528222196C430FF
:1040E000D105E1F6BFEFEB1AFB0AF20180810E94D5
:1040F0000920F0EAFA95F1F7D4018C91821519F0B4
:104100002C9233243394BFEF8B1A9B0AA814B90462
:1041100009F0B7CFEE24E394F12C4801F801808137
:104120000E94A41C00C0C7010C2E01C0880F0A9475
:10413000EAF7682FE9E9F4E091E0692E91E0792E41
:10414000782F7095D3014D913D01242F22952F702A
:1041500030E0D90190968C919F01508190E04F7092
:1041600002C0959587954A95E2F780FD03C0862F9A
:10417000852B02C0872F852380833196D9018C91AE
:10418000581711F033243394AE16BF06D9F60F5FDB
:104190001F4FF40180810E940920F0EAFA95F1F79F
:1041A0002196C830D10509F0B8CFC091F60133206F
:1041B00049F081E08093A5040E9461299093A404B2
:1041C0008093A3048091A5048823A9F08091A3047F
:1041D0009091A4040E944629059768F0EC2FF0E026
:1041E000E95CFD4FD6018D916D018193AA16BB0646
:1041F000C9F71092A5040E941024E091F6018111E4
:104200007FC0F0E0E95CFD4FF89485E0A8EFB4E0F2
:1042100001900D928A95E1F788EF94E00E948E1646
:104220008093F7047894F894C090FD04D090FE0435
:10423000E090FF04F09000058091A6049091A704FF
:10424000A091A804B091A904C816D906EA06FB06F5
:10425000D1F0C092A604D092A704E092A804F092F4
:10426000A9040E94102481110EC00E945529C61A6B
:10427000D70AE80AF90AC092F101D092F201E0925D
:10428000F301F092F4017894F89480910805882362
:10429000A9F180FF10C08091010580FF0AC09091B4
:1042A000870291609093870260E086950E94A0311A
:1042B00002C00E9489318091080581FF09C020E079
:1042C0004091040560910305809102050E944930E8
:1042D0008091080582FF09C080910705882319F0A5
:1042E0000E94772B02C00E94702B8091080583FFEB
:1042F00003C081E080933E061092080578946EC05A
:1043000085E0AEE9B4E0ED0119928A95E9F7CE2F88
:10431000D0E0C95CDD4F809198048A3040F461E2BE
:1043200073E2CE010E9451168823A9F10AC0809140
:10433000AA049091AB040E944629843F914078F7EB
:104340003BC06EE474E2CE010E945116882319F13D
:104350006BEB72E2CE010E9451168823E1F01092BD
:10436000980481E08093AC04C091F501D0E0C95C71
:10437000DD4F45E050E06EE974E0CE010E94F93671
:10438000892B61F185E0EEE9F4E0DE0101900D9208
:104390008A95E1F721C0809198048F3F19F08F5FD3
:1043A00080939804809198048A30D8F20E94612901
:1043B0009093AB048093AA048091AC04882371F09D
:1043C0001092AC04E091F501F0E0E95CFD4F85E06E
:1043D000DF011D928A95E9F733243394832DDF9111
:1043E000CF911F910F91FF90EF90DF90CF90BF90F2
:1043F000AF909F908F907F906F905F904F903F9085
:104400002F900895E0910905EB30A4F48AE0E802CA
:10441000F0011124E65FFE4F0084F185E02D309716
:1044200049F02CE235E040910B056CE075E080919D
:104430000A0509940895E7EFF4E0838980933E012B
:10444000848980935501089580E008959091F70143
:1044500092FF0DC0282F2871283019F4877F8460BF
:1044600006C0282F2471243011F48B7F886093FFBD
:104470000DC0282F2871283119F4877E846106C069
:10448000282F2471243111F48B7E88612091F8014A
:1044900020FF0DC0382F3871383019F4877F8160C4
:1044A00006C0382F3171313011F48E7F886021FFC2
:1044B0000DC0282F2871283119F4877E816106C02C
:1044C000282F2171213111F48E7E886194FD877E21
:1044D0000895EF92FF920F931F93CF93DF9379018B
:1044E000C82F880FDD0B41155105A9F08AE08C9F7C
:1044F000F0018D9FF00D1124E65FFE4F83819481C2
:1045000089509B4F228130E04217530708F49A01EB
:10451000A9010E940637CE010E944535892B09F575
:104520000115110501F18AE08C9FF0018D9FF00DBE
:104530001124E65FFE4F458150E00417150708F48B
:10454000A8018AE08C9FF0018D9FF00D1124E65F99
:10455000FE4F6681778169507B4FC7010E94063705
:1045600002C080E001C081E0DF91CF911F910F91E7
:10457000FF90EF9008950F931F93CF93DF93CDB7E4
:10458000DEB728970FB6F894DEBF0FBECDBF85E02B
:10459000E7E8F2E0DE01119601900D928A95E1F7CD
:1045A0008091410690914206A09143068E839F839D
:1045B000A88728854091590550915A0560915B055F
:1045C00070915C053FB7F894809151069091520626
:1045D000A0915306B09154063FBF841B950BA60BC8
:1045E000B70B84369105A105B10510F42223D9F04B
:1045F00000E010E020E030E048E050E0BE016F5FF6
:104600007F4F83E00E946922882359F00E94552938
:104610006093590570935A0580935B0590935C05F0
:1046200002C080E003C01092430681E028960FB6D6
:10463000F894DEBF0FBECDBFDF91CF911F910F91D8
:104640000895EF92FF920F931F93CF93DF9300D0C3
:1046500000D000D0CDB7DEB77B0101E010E09E01B5
:104660002A5F3F4F40E050E060E070E080E00E9451
:104670006922182F882309F445C0409151055091B3
:10468000520560915305709154052FB7F8948091AD
:10469000510690915206A0915306B09154062FBF37
:1046A000841B950BA60BB70B84369105A105B105AC
:1046B00038F488EF94E00E948E169E81891711F1DC
:1046C00005E010E09E012F5F3F4F40E050E060E0CA
:1046D00070E081E00E946922182F88EF94E00E9428
:1046E0008E1691E02E81281390E01923F9F00E9494
:1046F000552960935105709352058093530590930B
:10470000540509C085E0E8EFF4E0DE011196019060
:104710000D928A95E1F7112349F085E0FE0131966B
:10472000ACE4B5E001900D928A95E1F785E0ECE408
:10473000F5E0D70101900D928A95E1F7812F269639
:104740000FB6F894DEBF0FBECDBFDF91CF911F91A2
:104750000F91FF90EF900895AF92BF92CF92DF92AA
:10476000EF92FF920F931F93CF93DF9300D000D06F
:10477000CDB7DEB78C83809198048A3010F080E04A
:1047800040C08C818830DCF36132C8F72132B8F741
:104790006801F22E5A01E62E89836A832B83609387
:1047A0003E012093550100E010E020E030E043E0BE
:1047B00050E0BE016F5F7F4F84E00E946922882332
:1047C000F1F24E2D50E020E030E0B50185E00E948E
:1047D00069228823A1F220E030E041E050E0BE01F0
:1047E0006C5F7F4F86E00E946922882341F20F2D83
:1047F00010E0960140E050E060E070E087E00E9449
:1048000069220F900F900F900F90DF91CF911F9121
:104810000F91FF90EF90DF90CF90BF90AF900895F1
:104820008091F604811118C082E39091E30097FD16
:104830000AC0EFE3FCE93197F1F700C000008150B6
:10484000A1F782E001C081E08093F604823021F478
:104850000E94AA1A10927D0281E09091F604913094
:1048600009F080E008950F931F930E94102488237D
:1048700021F01F910F910C9455290E945529009108
:10488000F1011091F2012091F3013091F401600FD8
:10489000711F821F931F1F910F9108950F931F93F4
:1048A000CF93DF9300D000D0CDB7DEB74091550550
:1048B0005091560560915705709158052FB7F8949F
:1048C0008091510690915206A0915306B0915406E2
:1048D0002FBF841B950BA60BB70B84369105A10542
:1048E000B10528F10E943324DC01CB010296A11D01
:1048F000B11D89839A83AB83BC8300E010E020E084
:1049000030E044E050E0BE016F5F7F4F82E00E94E4
:104910006922182F882361F00E945529609355055C
:1049200070935605809357059093580501C011E088
:10493000812F0F900F900F900F90DF91CF911F91CB
:104940000F91089557985F9A879A8F9825E02A9536
:10495000F1F7000089B187988F9A90EA9A95F1F75C
:1049600090E0880F892F881F990B21E082278170A2
:104970000895CF93DF938238910569F1B0F48133C4
:10498000910509F46FC048F48932910509F465C0B6
:104990008A32910509F46BC08AC08533910509F408
:1049A00057C089339105B9F082C0833E910571F1FA
:1049B00038F4803E9105B1F0823E910511F177C047
:1049C000863E9105B9F1873E9105C9F1843E910576
:1049D00009F06DC024C02091F70120FD53C021FDD6
:1049E00051C065C08091F70180FD46C08091F801FB
:1049F00080FF48C08091F70184FD3FC183EE90E0C5
:104A00003EC18091F70182FF3AC0F4CF8091F70157
:104A100082FD35C08091F80180FD34C0EBCF8091DC
:104A2000F80181FF35C08091F70184FD26C187EE32
:104A300090E025C18091F70183FF27C0F4CF8091DA
:104A4000F70183FD22C08091F80181FD21C0EBCFE9
:104A50008091F70185FD1FC021C08091F70185FD80
:104A60001DC019C08091F70186FD1BC01DC080913B
:104A7000F70186FD19C015C089E390E000C182EE00
:104A800090E0FDC080EE90E0FAC086EE90E0F7C0C6
:104A900084EE90E0F4C089E290E0F1C085E390E01C
:104AA000EEC08AE290E0EBC081E390E0E8C08115BF
:104AB00032E5930708F069C0811541E5940728F0B5
:104AC000982F8827816F906ADAC0883E910568F533
:104AD000803E910508F0D3C0883A9105B8F4853A34
:104AE000910548F0855AE82FF0E0EC54FE4F8081A4
:104AF00090E09064C4C08130910509F4BBC008F413
:104B0000BCC08430910508F4B8C0B9C08F3B910592
:104B100008F0B3C0885AE82FF0E0EE0FFF1FE95409
:104B2000FE4F808191819464AAC0811520E592078F
:104B3000F0F09C0174E0369527957A95E1F7922F75
:104B40009370482F437021E030E002C0220F331FE2
:104B50004A95E2F73C68392B8F70982F9695969579
:104B600040E2949FC0011124822B932B88C08115B1
:104B700030E4930718F09F70906A81C09C013A95C9
:104B800021153F4108F47BC078C0EC01C11586E5D2
:104B9000D807E8F5C11525E5D20748F08C2F0E940B
:104BA00026228F7190E0982F8827906268C0C115E7
:104BB00034E5D30728F09C2F8827846F906A5FC064
:104BC000AE01437055272C2F26952695C115D34548
:104BD00078F481E090E002C0880F991F4A95E2F7CF
:104BE00040E2249F90011124822B932B9C6847C0A4
:104BF00081E090E002C0880F991F4A95E2F740E2F9
:104C0000249F90011124822B932B9A6838C0C115E0
:104C10002AE5D207F8F4C11539E5D30790F08C2FB7
:104C20008F700E94262294E0D695C7959A95E1F759
:104C3000CF70D0E0DC2FCC27D0699E01282BC90192
:104C40001EC0C11548E5D407C0F09C2F8827806F8F
:104C5000906A15C0CE0190568115904270F48D2F48
:104C60008F710E942622282F2F71CE0199279062E2
:104C7000922B05C081E090E002C080E090E0DF91DF
:104C8000CF91089580E090E00E945D36893E9E4F6E
:104C900011F40C94512B80E0089569EE7EEF80E0D2
:104CA00090E00E94813660E082E090E00E946336EE
:104CB00060E083E090E00E9463361092F50460E0CB
:104CC00084E090E00E94633660E082E290E00E941F
:104CD000633660E085E090E00E94633660E086E045
:104CE00090E00E9463366FEF87E090E00E946336A9
:104CF00040E050E0BA0188E090E00E94753660E044
:104D00008DE090E00E94633640E050E0BA0188E117
:104D100090E00E94753660E087E190E00E94633683
:104D200040E050E0BA018CE190E00E94753660E00E
:104D300070E080E290E00E94813640E050E0BA01ED
:104D400088E190E00E94753680E00E94242B0E944A
:104D5000422B40E050E0BA018FE090E00E947536AF
:104D600040E050E0BA0183E190E00C947536809108
:104D7000F40481111092F4040895809590917002CA
:104D80008923809370020895909170028091F304BA
:104D9000892B2091F204982F922B9093B10480914B
:104DA000F404882389F0892B8093B104E3EBF4E0C9
:104DB00097E080E0915029F021912223D9F38F5F71
:104DC000F9CF81110E94B726E0914C06F0914D0673
:104DD000309731F00280F381E02D81EB94E009946B
:104DE00008952091F104809582238093F104982FF7
:104DF000977099F430E0482F082E000C550B2417BB
:104E0000350759F09091F80192FD07C08595859579
:104E100085950E945C2E1092F1040895CF93C09165
:104E2000F801C2FB992790F9981799F080FBC2F915
:104E3000C093F8016091F70184E090E00E9463362E
:104E40006C2F82E290E00E94633682E0CF910C9456
:104E5000F126CF9108958091F0049091BF048917B5
:104E600019F08F5F8770FBCF08950F931F93CF9337
:104E7000DF938091BE0482958F7009F05DC08091B0
:104E8000BB04882309F458C08091F0041091BF043A
:104E90006091B9047091BA04C091BC04D091BD0472
:104EA00091E06F3F09F090E0292F06E0811709F4A7
:104EB00043C0209721F07F3F21F030E003C031E074
:104EC00001C0322F90E030FD34C0089FF001099FEF
:104ED000F00D1124DF01A054BB4F11963C911197A6
:104EE000371327C03C91361324C012963C91129779
:104EF00031111FC013964D915C9114974C1B5D0BA3
:104F0000483C5105B0F48091BE048F70806180935D
:104F1000BE04EB53FB4F80818F708061808389EBEF
:104F200094E00E945A10DF91CF911F910F910C9441
:104F30002B2701968770BACFDF91CF911F910F91E8
:104F400008950E94102481110C9461290E94332439
:104F5000CB01089508958091720208950895809379
:104F60005506709357066093560680917D028430F3
:104F7000F9F48093E9008FEF9091E800815095FD5E
:104F800006C095ED9A95F1F700008111F5CF80915B
:104F9000E80085FF0DC040E050E063E070E085E58B
:104FA00096E00E94341C8091E8008E778093E800A0
:104FB0000895BC0184E00C94AF27BC0183E00C94FD
:104FC000AF2724E02093E9002FEF3091E800215033
:104FD00035FD06C035ED3A95F1F700002111F5CF0A
:104FE0002091E80025FF0BC040E050E066E070E053
:104FF0000E94341C8091E8008E778093E800089529
:10500000CF93DF9321E02093E9002FEF3091E80068
:10501000215035FD06C035ED3A95F1F7000021111C
:10502000F5CF2091E80025FF14C0EC0140E050E0EE
:1050300068E070E00E94341C8091E8008E778093D5
:10504000E80088E0FE01A3E7B2E001900D928A95A6
:10505000E1F7DF91CF9108950F931F93CF93DF93E3
:1050600000D01F92CDB7DEB78C01DC011496EC9115
:10507000F0E0ED52F44F44918091870280FF11C01F
:10508000493708F048E79E012F5F3F4F6091890242
:10509000809188020E94B32F4B8169818A810E948E
:1050A000322FF80184818F5F84830F900F900F90CF
:1050B000DF91CF911F910F91089580917F0287FF1B
:1050C00011C08091E80082FD05C080917D028111B0
:1050D000F8CF11C08091E8008B770BC080917D02E2
:1050E000882349F08091E80080FFF8CF8091E800A4
:1050F0008E778093E8000895982F973068F5909305
:10510000E900981739F07091EC002091ED00509172
:10511000F00003C0242F762F50E021FD02C09F5FD6
:10512000ECCF3091EB003E7F3093EB003091ED00FF
:105130003D7F3093ED003091EB0031603093EB0018
:105140007093EC002093ED005093F0002091EE005E
:1051500027FDE5CF80E008958F708093E90081E01E
:10516000089520918502309186022617370748F06E
:105170006115710539F42091E8002E772093E8003D
:1051800001C0B901FC0120E06115710579F1809140
:105190007D028823F1F18530F1F18091E80083FDF3
:1051A0003CC08091E80082FD2EC08091E80080FF25
:1051B000EBCF2091F3008091F20090E0922B6115EB
:1051C000710551F08830910538F421912093F10058
:1051D000615071090196F3CF21E0089709F020E0B2
:1051E0008091E8008E778093E800CECF2111CFCF59
:1051F0000AC080917D02882361F0853061F0809142
:10520000E80083FD0AC08091E80082FFF2CF80E0D1
:10521000089582E0089583E0089581E0089587E786
:1052200097E790930108809300089AE088E10FB611
:10523000F894A895809360000FBE90936000FFCF14
:1052400078941F920F920FB60F9211248F939F9311
:10525000AF93BF938091510690915206A09153064F
:10526000B09154060196A11DB11D809351069093F3
:105270005206A0935306B0935406BF91AF919F91ED
:105280008F910F900FBE0F901F9018959C014FB7F4
:10529000F8948091510690915206A0915306B091D6
:1052A00054064FBF821B930B08952FB7F89460915B
:1052B00051067091520680915306909154062FBF6B
:1052C00008952FB7F8948091510690915206A091BD
:1052D0005306B09154062FBF08951F920F920FB638
:1052E0000F9211248F939F93AF93BF938091500699
:1052F000811113C08091510690915206A0915306DE
:10530000B09154064196A11DB11D80935106909312
:105310005206A0935306B0935406BF91AF919F914C
:105320008F910F900FBE0F901F9018959C01FC015C
:1053300032969FEF80E04191461789F09F3F19F424
:10534000411101C0982F8F5F8630A9F79F3F39F038
:10535000F901E90FF11D97FDFA956283089508950B
:1053600020914E0630914F062817390771F090931F
:105370004F0680934E06E0914C06F0914D06309713
:1053800021F00084F185E02D0994089520914A06CA
:1053900030914B062817390771F090934B06809394
:1053A0004A06E0914C06F0914D06309721F00680B8
:1053B000F781E02D099408950E941024882351F06C
:1053C000E0914C06F0914D06309721F00190F0816C
:1053D000E02D099480E00895CF93DF93C7EAD2E0EF
:1053E00060E0CE010E9463362196C11584E0D807A3
:1053F000B9F7DF91CF910895CF92DF92EF92FF92AC
:105400000F931F93CF93DF93C0E0D0E08E0100563F
:105410001F4F6E0180E1C80ED11CFE01E952F34F0F
:10542000E590F4906F2DCE0187960E9463366E2D25
:10543000CE0188960E9463362296CC15DD0569F769
:105440000C171D0731F7E80100381240F9F6DF911B
:10545000CF911F910F91FF90EF90DF90CF90089523
:105460000F931F93CF93DF93C42FD0E0CC0FDD1F9A
:1054700020E1629FC00DD11D112430EA839FC00D31
:10548000D11D1124CE0187960E944F36082F10E0BF
:10549000102F0027CE0188960E944F369801282BA6
:1054A000C901DF91CF911F910F910895462F84304C
:1054B00038F47A3028F4683018F4672F0C94302AC6
:1054C00080E090E0089580914906909148068823F5
:1054D00089F0992369F062E070E085ED9CE00E941C
:1054E0006517892B19F08091480608951092480697
:1054F0009091480681E08927089580914906882384
:10550000F9F00E945529DC01CB01805A9541AF4F3B
:10551000BF4F8093440690934506A0934606B093F0
:1055200047068091480681110BC062E070E083ED70
:105530009CE00E946517892B19F481E0809348064E
:10554000809148060895EF92FF920F931F93CF9397
:10555000DF93209196043091970420593240A9019D
:10556000460F571F4130524020F060E072E0621B4E
:10557000730BC0918E02D0918F02D901A057BD4FFD
:10558000A901620F731F01E010E046175707E8F406
:10559000FA01E21BF30BE80FF91FE491FC91EF17FE
:1055A00081F0EC93FA01689414F8F695E795169457
:1055B000E1F7780102C0EE0CFF1CEA95E2F7CE2974
:1055C000DF294F5F5F4F1196E0CFD0938F02C093DA
:1055D0008E02DF91CF911F910F91FF90EF90089570
:1055E000CF93E82F209196043091970420593240B0
:1055F00040918D02642F70E0C9010E94FD35481B67
:10560000842FEE2351F066E00E949736C82FC150D8
:10561000A8F080E20E94A516FACFA901480F511DFB
:105620004115524018F080E020E030E0280F311D95
:1056300020573D4F3093970420939604CF910895BF
:1056400086E290E00C946336CF93C82F811102C09C
:105650006FEF01C063E283E290E00E946336C11104
:1056600002C06FEF01C068E084E290E00E94633600
:10567000C11102C06FEF01C068E285E290E0CF91F6
:105680000C94633680E00E94242B60E070E0CB0134
:105690000E94202B0E94FC290E94EC2981E00C949E
:1056A000242B83E290E00E944F36833281F484E21F
:1056B00090E00E944F36883051F485E290E00E94DD
:1056C0004F3691E0883209F090E0892F01C080E0E8
:1056D00081700895882311F0FA0101C0FB0109943B
:1056E000E1E4F6E011828281846082830895609112
:1056F0008702669570E041E050E081E991E00E9408
:10570000EC36892B19F481E0809342060E94A12790
:1057100090933C0680933B0680914306846080937F
:105720004306089530918D018091870280FF16C055
:10573000E0918C0163E0E69FF0011124E35AFA4FF7
:10574000539A8BB1877F9BB198602FB7F894AF01C4
:1057500063E0369F400D511D112414C080918E01CD
:1057600090918F01891720F7E82FF0E0AF01440FE7
:10577000551FE40FF51FE35AFA4F1182108212826F
:105780008F5FF0CFE417F50789F0319168E09BB99E
:10579000000000C037FF8BB9330F000000C000C00D
:1057A00000C08BB900C06A9591F7ECCF2FBF8FE591
:1057B00094E00197F1F700C00000089580E090E0C8
:1057C0000E94C62980E090E00E94B0291092F30464
:1057D0001092F2040C94C426CF92DF92FF920F93A2
:1057E0001F93CF93DF936C0100918C028091F5049D
:1057F000082BC7E0D0E010E0C8010C2E02C0959540
:1058000087950A94E2F780FD04C02197A8F7F12C50
:1058100009C0FC2EB6018C2F0E94562A0E94B92482
:10582000019799F38F2DDF91CF911F910F91FF90E9
:10583000DF90CF900895CF93DF93EC010E94EC2B83
:10584000BE010E94562A0E94B924DF91CF9108958B
:10585000FC01808191810E941B2C292F2F70E92F40
:10586000E295EF704E2F50E0FA013297EE30F105DD
:10587000B8F4E757FF4F0C94C536803F99F018F401
:10588000883E70F40FC0843F59F40CC0883E50F03D
:10589000813F31F407C0822F8695869586950895BD
:1058A00080E0089581E008959F92AF92BF92CF92D9
:1058B000DF92EF92FF920F931F93CF93DF93CDB7B9
:1058C000DEB761970FB6F894DEBF0FBECDBF8C0177
:1058D00085E0F801DE011D9601900D928A95E1F7B1
:1058E000F801E2809091B9046091BA044091BC043F
:1058F0005091BD044115510531F06F3F31F481E005
:105900009F3F19F403C081E001C080E0F82FF170DF
:105910009F2E80FD1AC1F80130812181C380D4807F
:1059200089EBA82E84E0B82EF090BB04F601E41BAE
:10593000F50BFF2009F4C6C08091BE04E83CF105D8
:1059400008F091C0482F407F09F050C0621311C089
:1059500093130FC0FE2CE1100CC08F7080618093F8
:10596000BE04C5010E945A108091BE04F8018583CF
:1059700029C1CD2831F02F3F31F481E03F3F19F4A8
:1059800003C081E001C080E080FD03C081E08E257E
:1059900002C080E090E0F82FF170FF2E80FF1CC065
:1059A0008091F0044091BF0456E0841709F4E8C0E8
:1059B00090E0589FF001599FF00D1124E054FB4FE7
:1059C0006181261306C06081631303C06281E61201
:1059D00003C001968770E9CFFE2CEE2009F4F2C0D7
:1059E0008091BE0481608093BE0449C0621306C0EA
:1059F000931304C0E11002C0F80186C0C8010E94E0
:105A0000282C882351F1EE2041F12091BE04822FF1
:105A100082958F7090E0029774F08091B904909114
:105A2000BA0498878F831986DB86CA862C87CE01B5
:105A300007960E945A1086E0F801A9EBB4E00190A5
:105A40000D928A95E1F70E9435270AC06217C9F0C6
:105A5000C8010E94282C81111EC0C8010E945A1042
:105A6000FF24F394AFC0482F407F81F789EB94E087
:105A70000E945A1086E0F50111928A95E9F7F12CFF
:105A8000A1C09313E5CFE110E3CFF8018583C801EE
:105A90000E945A1054C0EE2001F32091BE04822FC0
:105AA00082958F7090E0029734F28091B9049091C2
:105AB000BA049A8389831B82DD82CC822E83CE0135
:105AC0000196B7CFE83CF105D0F5FE2CEE2029F287
:105AD000621327C0931325C02091BE0420FD18C077
